{
  "contractName": "AaveTask",
  "abi": [
    {
      "inputs": [],
      "stateMutability": "nonpayable",
      "type": "constructor"
    },
    {
      "inputs": [
        {
          "internalType": "address",
          "name": "asset",
          "type": "address"
        },
        {
          "internalType": "uint256",
          "name": "amount",
          "type": "uint256"
        }
      ],
      "name": "deposit",
      "outputs": [],
      "stateMutability": "nonpayable",
      "type": "function"
    },
    {
      "inputs": [],
      "name": "withdrawAndAddLiquidity",
      "outputs": [
        {
          "internalType": "uint256",
          "name": "",
          "type": "uint256"
        }
      ],
      "stateMutability": "nonpayable",
      "type": "function"
    }
  ],
  "bytecode": "0x608060405234801561001057600080fd5b507388757f2f99175387ab4c6a4b3067c77a695b03496000806101000a81548173ffffffffffffffffffffffffffffffffffffffff021916908373ffffffffffffffffffffffffffffffffffffffff16021790555060008054906101000a900473ffffffffffffffffffffffffffffffffffffffff1673ffffffffffffffffffffffffffffffffffffffff16630261bf8b6040518163ffffffff1660e01b815260040160206040518083038186803b1580156100cb57600080fd5b505afa1580156100df573d6000803e3d6000fd5b505050506040513d60208110156100f557600080fd5b8101908080519060200190929190505050600160006101000a81548173ffffffffffffffffffffffffffffffffffffffff021916908373ffffffffffffffffffffffffffffffffffffffff160217905550737a250d5630b4cf539739df2c5dacb4c659f2488d600260006101000a81548173ffffffffffffffffffffffffffffffffffffffff021916908373ffffffffffffffffffffffffffffffffffffffff160217905550610849806101aa6000396000f3fe608060405234801561001057600080fd5b50600436106100365760003560e01c806347e7ef241461003b578063f558126614610089575b600080fd5b6100876004803603604081101561005157600080fd5b81019080803573ffffffffffffffffffffffffffffffffffffffff169060200190929190803590602001909291905050506100a7565b005b61009161031d565b6040518082815260200191505060405180910390f35b60008290508073ffffffffffffffffffffffffffffffffffffffff166323b872dd3330856040518463ffffffff1660e01b8152600401808473ffffffffffffffffffffffffffffffffffffffff1681526020018373ffffffffffffffffffffffffffffffffffffffff1681526020018281526020019350505050602060405180830381600087803b15801561013b57600080fd5b505af115801561014f573d6000803e3d6000fd5b505050506040513d602081101561016557600080fd5b8101908080519060200190929190505050508073ffffffffffffffffffffffffffffffffffffffff1663095ea7b3600160009054906101000a900473ffffffffffffffffffffffffffffffffffffffff16846040518363ffffffff1660e01b8152600401808373ffffffffffffffffffffffffffffffffffffffff16815260200182815260200192505050602060405180830381600087803b15801561020a57600080fd5b505af115801561021e573d6000803e3d6000fd5b505050506040513d602081101561023457600080fd5b810190808051906020019092919050505050600160009054906101000a900473ffffffffffffffffffffffffffffffffffffffff1673ffffffffffffffffffffffffffffffffffffffff1663e8eda9df84843060006040518563ffffffff1660e01b8152600401808573ffffffffffffffffffffffffffffffffffffffff1681526020018481526020018373ffffffffffffffffffffffffffffffffffffffff168152602001828152602001945050505050600060405180830381600087803b15801561030057600080fd5b505af1158015610314573d6000803e3d6000fd5b50505050505050565b600080600160009054906101000a900473ffffffffffffffffffffffffffffffffffffffff1673ffffffffffffffffffffffffffffffffffffffff166369328dec73ff795577d9ac8bd7d90ee22b6c1703490b6512fd6305f5e100306040518463ffffffff1660e01b8152600401808473ffffffffffffffffffffffffffffffffffffffff1681526020018381526020018273ffffffffffffffffffffffffffffffffffffffff1681526020019350505050602060405180830381600087803b1580156103e957600080fd5b505af11580156103fd573d6000803e3d6000fd5b505050506040513d602081101561041357600080fd5b81019080805190602001909291905050509050600073ff795577d9ac8bd7d90ee22b6c1703490b6512fd9050600073e22da380ee6b445bb8273c81944adeb6e845042290508073ffffffffffffffffffffffffffffffffffffffff166323b872dd33306305f5e1006040518463ffffffff1660e01b8152600401808473ffffffffffffffffffffffffffffffffffffffff1681526020018373ffffffffffffffffffffffffffffffffffffffff1681526020018281526020019350505050602060405180830381600087803b1580156104eb57600080fd5b505af11580156104ff573d6000803e3d6000fd5b505050506040513d602081101561051557600080fd5b8101908080519060200190929190505050508173ffffffffffffffffffffffffffffffffffffffff1663095ea7b3600260009054906101000a900473ffffffffffffffffffffffffffffffffffffffff16856040518363ffffffff1660e01b8152600401808373ffffffffffffffffffffffffffffffffffffffff16815260200182815260200192505050602060405180830381600087803b1580156105ba57600080fd5b505af11580156105ce573d6000803e3d6000fd5b505050506040513d60208110156105e457600080fd5b8101908080519060200190929190505050508073ffffffffffffffffffffffffffffffffffffffff1663095ea7b3600260009054906101000a900473ffffffffffffffffffffffffffffffffffffffff166305f5e1006040518363ffffffff1660e01b8152600401808373ffffffffffffffffffffffffffffffffffffffff16815260200182815260200192505050602060405180830381600087803b15801561068d57600080fd5b505af11580156106a1573d6000803e3d6000fd5b505050506040513d60208110156106b757600080fd5b810190808051906020019092919050505050600260009054906101000a900473ffffffffffffffffffffffffffffffffffffffff1673ffffffffffffffffffffffffffffffffffffffff1663e8e3370083836127108060018030426040518963ffffffff1660e01b8152600401808973ffffffffffffffffffffffffffffffffffffffff1681526020018873ffffffffffffffffffffffffffffffffffffffff1681526020018781526020018681526020018581526020018481526020018373ffffffffffffffffffffffffffffffffffffffff16815260200182815260200198505050505050505050606060405180830381600087803b1580156107bb57600080fd5b505af11580156107cf573d6000803e3d6000fd5b505050506040513d60608110156107e557600080fd5b810190808051906020019092919080519060200190929190805190602001909291905050505050505050509056fea26469706673582212201b1906a8d6e7b9885b03056e73dd5b38110861ef79d5e861a29e897d84913e4c64736f6c634300060c0033",
  "immutableReferences": {},
  "source": "import \"./interfaces/IUniswapV2Router01.sol\";\nimport \"@aave/protocol-v2/contracts/interfaces/ILendingPoolAddressesProvider.sol\";\nimport \"@aave/protocol-v2/contracts/interfaces/ILendingPool.sol\";\nimport \"@openzeppelin/contracts/token/ERC20/IERC20.sol\";\n\n\n\npragma solidity ^0.6.12;\n\ncontract AaveTask {\n    \n    \n    ILendingPoolAddressesProvider provider;\n    ILendingPool lendingPool;\n    IUniswapV2Router01 router;\n    \n    constructor() public {\n        provider = ILendingPoolAddressesProvider(0x88757f2f99175387aB4C6a4b3067c77A695b0349);\n        lendingPool = ILendingPool(provider.getLendingPool());\n        router = IUniswapV2Router01(0x7a250d5630B4cF539739dF2C5dAcb4c659F2488D);\n    }\n    \n    function deposit(address asset, uint amount) external {\n        IERC20 token = IERC20(asset);\n        token.transferFrom(msg.sender, address(this), amount);\n        token.approve(address(lendingPool),amount);\n        lendingPool.deposit(asset, amount, address(this), 0);\n    }\n    \n    function withdrawAndAddLiquidity() external returns(uint) {\n        uint amount = lendingPool.withdraw(0xFf795577d9AC8bD7D90Ee22b6C1703490b6512FD, 100000000, address(this));\n        \n        address tokenA = 0xFf795577d9AC8bD7D90Ee22b6C1703490b6512FD;\n        address tokenB = 0xe22da380ee6B445bb8273C81944ADEB6E8450422;\n        IERC20(tokenB).transferFrom(msg.sender, address(this), 100000000);\n        \n        IERC20(tokenA).approve(address(router), amount);\n        IERC20(tokenB).approve(address(router), 100000000);\n        \n        router.addLiquidity(\n            tokenA,\n            tokenB,\n            10000,\n            10000,\n            1,\n            1,\n            address(this),\n            block.timestamp\n        );\n    }\n}",
  "sourcePath": "/home/esteban/Escritorio/solidity/solidity-react-aave/contracts/AaveContract.sol",
  "compiler": {
    "name": "solc",
    "version": "0.6.12+commit.27d51765.Emscripten.clang"
  },
  "schemaVersion": "3.4.1",
  "updatedAt": "2021-09-04T08:14:46.500Z",
  "devdoc": {
    "kind": "dev",
    "methods": {},
    "version": 1
  },
  "userdoc": {
    "kind": "user",
    "methods": {},
    "version": 1
  }
}